{
  "contractName": "Voting",
  "abi": [
    {
      "constant": false,
      "inputs": [
        {
          "name": "candidate",
          "type": "uint256"
        }
      ],
      "name": "vote",
      "outputs": [],
      "payable": false,
      "stateMutability": "nonpayable",
      "type": "function"
    },
    {
      "constant": true,
      "inputs": [],
      "name": "checkEligiblity",
      "outputs": [
        {
          "name": "",
          "type": "bool"
        }
      ],
      "payable": false,
      "stateMutability": "view",
      "type": "function"
    },
    {
      "constant": true,
      "inputs": [
        {
          "name": "candidate",
          "type": "uint256"
        }
      ],
      "name": "totalVote",
      "outputs": [
        {
          "name": "",
          "type": "uint256"
        }
      ],
      "payable": false,
      "stateMutability": "view",
      "type": "function"
    },
    {
      "constant": false,
      "inputs": [
        {
          "name": "numberOfCandidate",
          "type": "uint256"
        },
        {
          "name": "whitelist",
          "type": "address[]"
        }
      ],
      "name": "Ballot",
      "outputs": [],
      "payable": false,
      "stateMutability": "nonpayable",
      "type": "constructor"
    }
  ],
  "bytecode": "0x6060604052341561000f57600080fd5b60405161028c38038061028c83398101604052808051919060200180516001849055909101905060005b815181101561008d57600160008084848151811061005357fe5b90602001906020020151600160a060020a031681526020810191909152604001600020805460ff1916911515919091179055600101610039565b5050506101ed8061009f6000396000f300606060405263ffffffff7c01000000000000000000000000000000000000000000000000000000006000350416630121b93f81146100525780637c7c3c031461006a578063e2a75f361461009157600080fd5b341561005d57600080fd5b6100686004356100b9565b005b341561007557600080fd5b61007d610171565b604051901515815260200160405180910390f35b341561009c57600080fd5b6100a760043561019d565b60405190815260200160405180910390f35b73ffffffffffffffffffffffffffffffffffffffff331660009081526020819052604081205460ff1615156001146100ed57fe5b60015482106100f857fe5b600282610100811061010657fe5b015490506001600283610100811061011a57fe5b018054909101905573ffffffffffffffffffffffffffffffffffffffff33166000908152602081905260409020805460ff1916905580600283610100811061015e57fe5b01540360011461016d57600080fd5b5050565b73ffffffffffffffffffffffffffffffffffffffff331660009081526020819052604090205460ff1690565b60015460009082106101ab57fe5b60028261010081106101b957fe5b0154929150505600a165627a7a72305820c18188c42c3ae2bc8efb3594f307fc191103c5ec5732b9a411f294475f35f2c20029",
  "source": "pragma solidity ^0.4.4;\n\ncontract Voting {\n    mapping (address => bool) eligibility;\n  \n    struct Candidate {\n        uint256 totalVote;\n    }\n    \n    uint nCandidate;\n    Candidate[256] candidates;\n    \n    function Voting(uint numberOfCandidate, address[] whitelist) public {\n        nCandidate = numberOfCandidate;\n        for(uint i = 0; i < whitelist.length; i++){\n            eligibility[whitelist[i]] = true;\n        }\n    }\n    \n    function vote(uint candidate) public {\n        assert(eligibility[msg.sender] == true);\n        assert(candidate < nCandidate);\n        \n        uint256 prevote = candidates[candidate].totalVote;\n        candidates[candidate].totalVote += 1; \n        eligibility[msg.sender] = false;\n        \n        if(candidates[candidate].totalVote - prevote != 1) revert();\n    }\n    \n    function checkEligiblity() public constant returns (bool) {\n        return eligibility[msg.sender];\n    }\n    \n    function totalVote(uint candidate) public constant returns (uint) {\n        assert(candidate < nCandidate);\n        return candidates[candidate].totalVote;\n    }\n}",
  "sourcePath": "/home/fengkiej/Documents/Semester 5/sample_app/contracts/Voting.sol",
  "schemaVersion": "1.0.0",
  "updatedAt": "2017-11-26T06:53:24.926Z"
}